:100000000C9420270C9444590C9419590C94EE58D4
:100010000C94C3580C9498580C946D580C944258F6
:100020000C9417580C9451270C9451270C94512779
:100030000C9451270C94885A0C9451270C945127F6
:100040000C9451270C948B840C9451270C945127B9
:100050000C9451270C9451270C94747F0C94C17A02
:100060000C9451270C943BC30C942F930C94512760
:100070000C9451270C9451270C9451270C94512720
:100080000C9451270C9451270C9451270C94512710
:100090000C9451270C9451270C9451270C94512700
:1000A0000C9451270C9451270C9451270C945127F0
:1000B0000C9451270C9451270C9451270C945127E0
:1000C0000C9451270C9451270C9451270C945127D0
:1000D0000C9451270C9451270C9451270C945127C0
:1000E0000C945127084AD73B3BCE016E84BCBFFD20
:1000F000C12F3D6C74319ABD56833DDA3D00C77FF8
:1001000011BED9E4BB4C3E916BAAAABE0000008090
:100110003F05A84CCDB2D44EB93836A9020C50B91F
:10012000918688083CA6AAAA2ABE000000803F004B
:100130004E414E494E495459494E46CDCCCC3D0ACC
:10014000D7233C17B7D13877CC2B329595E6241FAF
:10015000B14F0A000020410000C84200401C462068
:10016000BCBE4CCA1B0E5AAEC59D740000200023B5
:1001700000260029002C002F00320000010000039F
:100180000106010901022569730025696D202569B1
:1001900073002569682025696D202569730025692C
:1001A00064202569682025696D202569730025690B
:1001B0007920256964202569682025696D202569D5
:1001C000730000060900FE0701920321207FFF074C
:1001D000FF07FF000000060000010707060200807D
:1001E000808080800080030202060105A0A0050730
:1001F000070600005050F850F85050050707060059
:10020000002078A07028F020050707060000C0C86D
:1002100010204098180507070600006090A040A82D
:100220009068020303060104C0408003070706012B
:1002300000204080808040200307070601008040A6
:10024000202020408005050506000120A870A82078
:100250000505050600012020F82020020303060200
:10026000FFC04080050101060003F80202020602F9
:1002700000C0C005050506000108102040800507E4
:1002800007060000708888888888700307070601C1
:100290000040C040404040E005070706000070886D
:1002A00008708080F8050707060000F81020100885
:1002B00008F005070706000010305090F8101005F0
:1002C0000707060000F880F0080888700507070691
:1002D0000000708080F0888870050707060000F82D
:1002E000081020202020050707060000708888706D
:1002F00088887005070706000070888878080870ED
:10030000020505060200C0C000C0C00206060602C3
:10031000FFC0C000C0408004070706000010204056
:1003200080402010050303060002F800F8040707C8
:1003300006010080402010204080050707060000CD
:100340007088081020002005070706000070880844
:1003500068A8A870050707060000708888F88888D4
:1003600088050707060000F08888F08888F00507F0
:1003700007060000708880808088700507070600E7
:1003800000F08888888888F0050707060000F88054
:1003900080F08080F8050707060000F88080F08074
:1003A0008080050707060000708880B8888870057F
:1003B0000707060000888888F888888801070706EC
:1003C000020080808080808080050707060000385A
:1003D0001010101090600507070600008890A0C05C
:1003E000A09088050707060000808080808080F844
:1003F00005070706000088D8A888888888050707A9
:100400000600008888C8A8988888050707060000A5
:1004100070888888888870050707060000F088883B
:10042000F080808005070706000070888888A89003
:1004300068050707060000F08888F0A09088050787
:1004400007060000788080700808F005070706009E
:1004500000F82020202020200507070600008888BB
:10046000888888887005070706000088888888883B
:1004700050200507070600008888888888A850054E
:10048000070706000088885020508888050707065F
:10049000000088888850202020050707060000F803
:1004A0000810204080F8030707060100E0808080E4
:1004B0008080E00505050600018040201008030744
:1004C00007060100E02020202020E00503030600AD
:1004D00004205088050101060000F802020206020D
:1004E0000580400505050600007008788878050736
:1004F000070600008080B0C88888F0050505060062
:10050000007080808870050707060000080868985A
:100510008888780505050600007088F88070050752
:10052000070600003048E04040404005060606004F
:10053000FF7088887808700507070600008080B083
:10054000C8888888010707060200800080808080B4
:10055000800308080601FF200020202020A040047E
:100560000707060000808090A0C0A0900307070640
:100570000100C04040404040E0050505060000D0B5
:10058000A8A8A8A8050505060000B0C888888805A1
:10059000050506000070888888700506060600FFBD
:1005A000F08888F080800506060600FF7888887845
:1005B0000808050505060000B0C88080800505050F
:1005C00006000070807008F0040707060000404035
:1005D000E04040403005050506000088888898689E
:1005E00005050506000088888850200505050600D9
:1005F000008888A8A85005050506000088502050EE
:10060000880506060600FF888888780870050505B5
:10061000060000F8102040F80307070601002040FC
:1006200040804040200107070602008080808080D3
:10063000808003070706010080404020404080057D
:100640000202060002689000000006000001050892
:1006500000FF060121023520FFFF07FF06FF09000A
:1006600050221656808080800080153353A0A0A0B1
:100670000257575050F850F850500257572070A06A
:100680007028702013355580A040A02002475740A5
:10069000A0A040A0A0502513538080801226564071
:1006A0008080808040122656804040404080024535
:1006B000559060F060900255552020F820201133AD
:1006C00053604080044151F011335340E0400246F2
:1006D0005610102040808012365640A0A0A0A040A6
:1006E00012365640C0404040E002465660901060CE
:1006F00080F0024656F0206010906002465620605E
:10070000A0F02020024656F080E01090600246568D
:100710006080E0909060024656F010202040400239
:1007200046566090609090600246566090907010BF
:1007300060122555C0C000C0C01136566060006010
:100740004080123656204080804020034353F00002
:10075000F012365680402020408012365640A020AD
:10076000400040015858304898A8A89040300246B0
:1007700056609090F09090024656E090E09090E0A5
:10078000024656609080809060024656E0909090BD
:1007900090E0024656F080E08080F0024656F080FD
:1007A000E0808080024656609080B090600246569D
:1007B0009090F0909090123656E040404040E00219
:1007C000465670202020A04002465690A0C0A0A00F
:1007D000900246568080808080F002465690F0F06D
:1007E00090909002465690D0F0B0B090024656607D
:1007F0009090909060024656E09090E08080014793
:1008000057609090D0B06010024656E09090E09013
:1008100090024656609040209060123656E040406C
:10082000404040024656909090909060024656900C
:100830009090906060024656909090F0F090024642
:1008400056909060609090025656888850202020E4
:10085000024656F010204080F0123656E08080802C
:1008600080E0024656808040201010123656E0206C
:10087000202020E016325240A0014151F0162252B1
:100880008040024454709090700246568080E09000
:1008900090E01234546080806002465610107090D0
:1008A000907002445460B0C060024656205040E050
:1008B000404001455560907010600246568080E0CF
:1008C0009090901236564000C04040E011375720BB
:1008D00000202020A040024656808090E090901298
:1008E0003656C040404040E0025454D0A8A8A80268
:1008F0004454E090909002445460909060014555BB
:10090000E090E080800145557090701010024454D2
:10091000A0D0808012345460C020C00246564040AF
:10092000E040502002445490909070123454A0A0A3
:10093000A04002545488A8A850024454906060908B
:100940000145559090709060024454F02040F002B0
:100950004757304020C0204030221656808080808B
:100960008080024757C02040304020C0064252508D
:10097000A0FFFFFFFFFFFFFFFFFFFFFFFFFFFFFFE6
:10098000FFFFFFFFFFFFFFFFFFFFFFFFFFFFFFFF77
:10099000FFFF0900502216568000808080800146AB
:1009A000562070A0A070200246562050E04050A073
:1009B00002555588705070880256568850F820F8B5
:1009C00020221757808080008080800247577080E7
:1009D000E0907010E0173151A002565670A8C8C8B8
:1009E000A87014355560A06000E003435350A05038
:1009F000123353E02020143151E002565670E8D8EB
:100A0000E8D870173151E015335340A040123555E6
:100A100040E04000E014355540A02040E01435553A
:100A2000C020C020C01622524080014555909090B1
:100A3000E08002565678E8E8682828241151801191
:100A40002252408014355540C04040E01435554096
:100A5000A04000E0034353A050A00247578080808D
:100A6000A060F0200247578080A0D010207002477D
:100A70005780408060A0F02012365640004080A091
:100A80004002475740206090F09090024757204026
:100A90006090F0909002475760906090F0909002C4
:100AA000475750A06090F090900247579000609098
:100AB000F0909002475760906090F09090024656F8
:100AC00070A0A0F0A0B00147576090808090604077
:100AD0000247574020F080E080F00247572040F066
:100AE00080E080F00247576090F080E080F002479D
:100AF000579000F080E080F01237578040E040408F
:100B000040E01237572040E0404040E01237574065
:100B1000A0E0404040E0123757A000E0404040E0F5
:100B20000256567048E848487002475750A090D087
:100B3000B0909002475740206090909060024757D5
:100B40002040609090906002475760906090909035
:100B50006002475750A06090909060024757900005
:100B60006090909060123353A040A002465670B03F
:100B7000B0D0D0E00247574020909090906002475C
:100B800057204090909090600247576090909090CE
:100B900090600247579000909090906002575710D5
:100BA00020885020202002465680E09090E080026D
:100BB00046566090A0A090A0024757402000709039
:100BC0009070024757204000709090700247572065
:100BD00050007090907002475750A0007090907035
:100BE00002465650007090907002475760906070B7
:100BF000909070025454F068B07811355560808040
:100C0000604002475740200060B0C0600247572054
:100C1000400060B0C06002475760900060B0C060A4
:100C2000024656500060B0C060123757804000C086
:100C30004040E0123757204000C04040E012375794
:100C400040A000C04040E0123656A000C04040E046
:100C5000024757A040A01070906002475750A00074
:100C6000E0909090024757402000609090600247CB
:100C7000572040006090906002475760900060905D
:100C8000906002475750A0006090906002465690D6
:100C900000609090601235554000E00040024454DE
:100CA00070B0D0E00247574020009090907002470B
:100CB00057204000909090700247576090009090AD
:100CC00090700246569000909090700148582040D5
:100CD0000090907090600147578080E090E08080A5
:100CE0000147579000909070906001050700FE0545
:100CF00000FB01F220FFFE05FE05FE02004002158A
:100D0000258080800080053242A0A002556550F801
:100D100050F8500146562070C030E02002556590D2
:100D20001020404802556560806890680512228056
:100D3000800225354080808040022535804040403B
:100D400080043343A040A003334340E040012232FB
:100D50004080043141E002112180025565081020D5
:100D600040800245556090909060022535C040401B
:100D70004040024555E0106080F0024555E01060AB
:100D800010E00245552060A0F020024555F080E0BB
:100D900010E00245556080E09060024555F010205B
:100DA00040400245556090609060024555609070EB
:100DB00010600313238000800214248000808002CE
:100DC00035452040804020033343E000E0023545B4
:100DD0008040204080024555E0106000400255658B
:100DE0007088B8A870024555609090F09002455503
:100DF000E090E090E00235456080808060024555DB
:100E0000E0909090E0023545E080E080E0023545DA
:100E1000E080E080800245557080B09070024555BA
:100E20009090F09090023545E0404040E0024555FA
:100E3000301010906002455590A0C0A0900235453A
:100E400080808080E002556588D8A8888802455552
:100E500090D0B090900245556090909060024555BA
:100E6000E09090E0800146566090909060100245BE
:100E700055E09090E09002455570806010E002359A
:100E800045E04040404002455590909090600245BA
:100E9000559090A0A04002556588A8A8A85002458A
:100EA000559090609090024555909070106002357A
:100EB00045E0204080E0022535C0808080C002559A
:100EC000658040201008022535C0404040C00532F2
:100ED0004240A0024151F005223280400244547049
:100EE00090907002455580E09090E002344460801C
:100EF0008060024555107090907002445460B0C0FC
:100F0000600235452040E0404000465670909070A9
:100F1000106002455580E090909002152580008079
:100F20008080002737400040404040800245558087
:100F300090A0E0900215258080808080025464F0AB
:100F4000A8A8A8024454E090909002445460909065
:100F500060004656E09090E0808000465670909089
:100F6000701010023444A0C0808002445470C0301D
:100F7000E002354540E0404020024454909090709B
:100F80000244549090A040025464A8A850500234E7
:100F900044A04040A00046569090907010600244DB
:100FA00054F02040F0023545604080406002152535
:100FB0008080808080023545C0402040C00542527C
:100FC00050A0FFFFFFFFFFFFFFFFFFFFFFFFFFFF3F
:100FD000FFFFFFFFFFFFFFFFFFFFFFFFFFFFFFFF21
:100FE000FFFFFF020040FFFFFFFFFFFFFFFFFFFFCC
:100FF000FFFFFFFFFFFFFFFFFFFFFFFFFFFFFFFF01
:10100000FFFFFFFFFFFFFFFFFFFFFFFFFFFFFFFFF0
:10101000FFFFFFFFFFFFFFFFFFFFFFFFFFFFFFFFE0
:10102000FFFFFFFFFFFFFFFFFFFFFFFFFFFFFFFFD0
:10103000FFFFFFFFFFFFFFFFFFFFFFFFFFFFFFFFC0
:10104000FFFFFFFFFF01060D00FE09016602D6202B
:10105000FFFE0BFE0AFE0D00602219698080808071
:101060008080800080183363A0A0A0035767505091
:10107000F850F850500259692078A0A0702828F044
:101080002002596948A85010204050A89002586882
:1010900040A0A040A0989068281363808080113BF6
:1010A0006B2040408080808080404020113B6B80DE
:1010B0004040202020202040408006556520A87018
:1010C000A8200455652020F820201133636040805B
:1010D000065161F811336340E04002596908081075
:1010E0001020404080800259692050888888888874
:1010F00050200259692060A02020202020F80259A9
:10110000697088880810204080F8025969F8081032
:10111000207008088870025969101030505090F8FB
:101120001010025969F88080B0C808088870025908
:101130006970888080F088888870025969F8081082
:101140001020204040400259697088888870888843
:101150008870025969708888887808088870113802
:101160006840E040000040E04011386840E0400046
:10117000006040800259690810204080402010081B
:10118000045464F80000F8025969804020100810E7
:1011900020408002596970888808102020002002B1
:1011A000596970888898A8A8B08078025969205039
:1011B000888888F8888888025969F04848487048C3
:1011C0004848F00259697088808080808088700269
:1011D0005969F048484848484848F0025969F88039
:1011E0008080F0808080F8025969F8808080F080EB
:1011F0008080800259697088808080988888700219
:10120000596988888888F888888888123969E04010
:10121000404040404040E002596938101010101022
:10122000109060025969888890A0C0A090888802B8
:1012300059698080808080808080F8025969888820
:10124000D8A8A88888888802596988C8C8A8A89892
:101250009888880259697088888888888888700288
:101260005969F0888888F080808080015A6A708887
:101270008888888888A87008025969F0888888F06A
:10128000A0908888025969708880807008088870EA
:10129000025969F820202020202020200259698846
:1012A00088888888888888700259698888888850E2
:1012B0005050202002596988888888A8A8A8A8507A
:1012C000025969888850502050508888025969888E
:1012D0008850502020202020025969F80810102042
:1012E000404080F8113B6BE080808080808080806F
:1012F00080E0025969808040402010100808113BAE
:101300006BE0202020202020202020E008536320B4
:101310005088015161F82A226280400256667008A6
:1013200078889868025969808080F088888888F079
:1013300002566670888080887002596908080878AB
:1013400088888888780256667088F8808870025984
:101350006930484040F040404040005868708888FC
:101360008878088870025969808080B0C888888829
:10137000881238684000C040404040E0004A6A108F
:101380000030101010109090600259698080809099
:10139000A0C0A09088123969C04040404040404001
:1013A000E0025666D0A8A8A8A888025666B0C888E9
:1013B000888888025666708888888870005868F027
:1013C000888888F0808080005868788888887808C5
:1013D0000808025666B0C880808080025666708811
:1013E000601088700258684040F040404048300229
:1013F000566688888888986802566688888850501B
:10140000200256668888A8A8A850025666885020F0
:101410002050880058688888889868088870025624
:1014200066F810204080F8015B6B1820202020C057
:101430002020202018221969808080808080808070
:1014400080015B6BC0202020201820202020C008B5
:10145000536348A890FFFFFFFFFFFFFFFFFFFFFF61
:10146000FFFFFFFFFFFFFFFFFFFFFFFFFFFFFFFF8C
:10147000FFFFFFFFFFFF0D006022196980008080E1
:1014800080808080800358682070A8A0A0A8702069
:1014900002596930484040E0404048B003566688F1
:1014A000705050708802596988885050F820F82090
:1014B00020221969808080800080808080124A6AA2
:1014C000609080609090601090601A3262A0A003DB
:1014D00059697088A8D8C8D8A88870045767700858
:1014E00078887800F80356662850A0A05028045346
:1014F00063F80808163161E00359697088E8D8D8A4
:10150000E8D888700A5161F81744646090906003CD
:1015100057672020F8202000F807356540A02040BC
:10152000E007356540A04020C02A22624080005874
:10153000688888888898E8808002596978E8E8E8AF
:10154000E868282828262161C020226240800735CB
:101550006540C04040E0045767708888887000F894
:10156000035666A050282850A0025A6A40C0404046
:10157000E00818283808025A6A40C04040E01028A5
:10158000081038025A6A40A04020A048182838089D
:10159000025969200020204080888870025A6A40E1
:1015A000200020508888F88888025A6A102000207D
:1015B000508888F88888025A6A3048002050888805
:1015C000F88888025A6A28500020508888F888884D
:1015D000025A6A50500020508888F88888025A6A57
:1015E00020502020508888F8888802596958A0A087
:1015F000A0B0E0A0A0B8005B6B7088808080808085
:1016000088702040025A6A402000F88080F0808074
:10161000F8025A6A102000F88080F08080F8025AA0
:101620006A304800F88080F08080F8025A6A505092
:1016300000F88080F08080F8123A6A804000E04034
:1016400040404040E0123A6A204000E040404040C4
:1016500040E0124A6A609000E04040404040E012A2
:101660003A6AA0A000E04040404040E0025969F0E2
:10167000484848E8484848F0025A6A285000888894
:10168000C8A8988888025A6A40200070888888888C
:101690008870025A6A1020007088888888887002D2
:1016A0005A6A30480070888888888870025A6A2888
:1016B000500070888888888870025A6A505000707C
:1016C0008888888888700355658850205088015B19
:1016D0006B08709898A8A8A8C8C87080025A6A4079
:1016E000200088888888888870025A6A10200088BC
:1016F000888888888870025A6A3048008888888874
:10170000888870025A6A5050008888888888887053
:10171000025A6A102000888850202020200259692F
:1017200080F0888888F0808080025969609090A05D
:10173000A0908888B0025969402000700878889885
:101740006802596910200070087888986802596901
:1017500030480070087888986802596928500070ED
:1017600008788898680259695050007008788898FD
:1017700068025A6A304830007008788898680256C3
:1017800066702870A0A850005868708880808870A3
:1017900020400259694020007088F8808870025902
:1017A000691020007088F8808870025969304800FC
:1017B0007088F88088700259695050007088F880ED
:1017C0008870123969804000C040404040E01239C2
:1017D00069204000C040404040E0124969609000EC
:1017E000C040404040E0123969A0A000C0404040E5
:1017F00040E0025A6A502060107088888888700221
:101800005969285000B0C8888888880259694020E2
:101810000070888888887002596910200070888854
:1018200088887002596930480070888888887002FA
:10183000596928500070888888887002596950500A
:1018400000708888888870035767202000F800207F
:1018500020015868087098A8A8C87080025969408B
:101860002000888888889868025969102000888834
:1018700088889868025969304800888888889868FC
:10188000025969505000888888889868005B6B10FE
:1018900020008888889868088870005A6A8080B01C
:1018A000C88888C8B08080005B6B505000888888EA
:1018B0009868088870000000000000000000000028
:1018C0000000000000000000000000000000000018
:1018D00000000000000000000C00000000000000FC
:1018E0000C000000000000001200000000000000DA
:1018F00023000000000000002100000000000000A4
:101900004C800000000000005E800000000000002D
:101910009240000000000000A14000000000000113
:1019200021200000000000027F9000000000000263
:101930000010000000000007FFF800000000000495
:10194000000800000000000800040000000000087B
:10195000000600000000001000020000000000303F
:101960001E010000000000207F81000000000041F7
:10197000FFE0800000000043FCF0800000000087D2
:101980003B7840000000018EDBFC60000000010F8E
:10199000EBCC20000000021FEDB610000000021F7B
:1019A000DEB6100000000439CD7F080000000436C8
:1019B000E0FF08000000087EC0BB84000000187F24
:1019C000005D86000000107FC0ED82000000203C1A
:1019D000C07301000000203B337F01000000701B3A
:1019E000E77E03800000C81DEEDE04C00000880F03
:1019F000DEDC04400001240FDF3C09200001260743
:101A0000DBF8192000027203E7F013900002510185
:101A1000FFE02290000489007F80244800090480B0
:101A20001E004824000BFE400000DFF400100040C0
:101A300000008002001FFFFFFFFFFFFE000000000C
:101A40000000000000000000000000000000000096
:101A500000000000001022103C3C0E1F001022105D
:101A60000422110400102210082211040010221078
:101A7000083C110400102210102211040010221042
:101A800020221104001E1C1E3C3C0E04000000001D
:101A90000000000000000000000000000000000046
:101AA0000000000000000000000000000000000036
:101AB0000000000000000000000000000000000026
:101AC0000000000000000000000000000000000016
:101AD0000000000000000000000000000000000006
:101AE00000000000000000000000000000000000F6
:101AF00000000025753A2530327500253032753AE0
:101B0000253032750025756420253032753A253030
:101B10003275005A005900580009200000000000EA
:101B200000000000000000003FFFF0000000000087
:101B300000000000000000380070000000000000FD
:101B400000000000000030FC300000000000000039
:101B5000000000000020FC10000000000000000059
:101B600000000000207810000000000000000000CD
:101B70000000002030100000000000000000000005
:101B800000002C00D03FC0000000000000002082B8
:101B9000002E31D07FE00000000000000010410066
:101BA0002F7BD07FE0000000000000001041002FDC
:101BB0007BD07FE0000000000000002082002E317A
:101BC000D03FC0000000000000004104002C00D005
:101BD0003FC0000000000000008208002030107F9D
:101BE000E0000000000000008208002078107FE084
:101BF0000000000000000041040020FC107FE00015
:101C000000000000000020820030FC301F80000037
:101C100000000000000000003800700F000000000D
:101C200000000000FFFFC03FFFF0060000000000C2
:101C3000000000FFFFC000000000000000000000E6
:101C400000000000003FFFF0000000000000000066
:101C500000000000380070000000000000000000DC
:101C6000000000318630000000000000000000008D
:101C700000002387100000000000000000000000AA
:101C80000027879000000000000000000000000016
:101C90002F87D00000000000000000000000002F8F
:101CA00003D03FC000000000000000208200203070
:101CB000107FE000000000000000104100207810BC
:101CC0007FE0000000000000001041002078107F3D
:101CD000E0000000000000002082002030103FC023
:101CE000000000000000004104002F03D03FC000AE
:101CF0000000000000008208002F87D07FE0000075
:101D000000000000008208002787907FE0000000AC
:101D1000000000004104002387107FE00000000065
:101D20000000002082003186301F8000000000008B
:101D300000000000003800700F00000000000000EC
:101D400000FFFFC03FFFF0060000000000000000A1
:101D5000FFFFC00000004C756C7A426F7420544144
:101D60005A20352072656164792E005072696E7454
:101D7000696E672E2E2E005072696E742070617528
:101D8000736564004D313235004D32340050726954
:101D90006E742061626F72746564005072696E7453
:101DA0002066726F6D2053440053746F7020707200
:101DB000696E74004E6F2053442063617264005258
:101DC0006573756D65207072696E7400506175730E
:101DD00065207072696E740041626F757420507274
:101DE000696E746572004368616E67652066696C30
:101DF000616D656E74004368616E67652066696C2D
:101E0000616D656E74004D36303020423000436F96
:101E10006E66696775726174696F6E0054656D7086
:101E200065726174757265004D6F76656D656E746F
:101E30000054756E6500496E666F20736372656548
:101E40006E004D6F76652061786973004469736137
:101E5000626C65207374657070657273004D383400
:101E6000004175746F20686F6D6500473238004D12
:101E700061696E004D3530320A4D353030004C6F9F
:101E800061642073657474696E677300526573745E
:101E90006F7265206661696C736166650053746F6B
:101EA00072652073657474696E677300416476614E
:101EB0006E6365642053657474696E6773004D6169
:101EC000696E005072696E74657220537461747328
:101ED000004669726D776172652056657273696F2D
:101EE0006E004D61696E00466C6F7700466C6F77CF
:101EF0000046616E20737065656420310046616E36
:101F00002073706565642031004265640042656439
:101F1000004E6F7A7A6C65004E6F7A7A6C6500536A
:101F200070656564005370656564004D61696E009D
:101F30004D6F76652058004D6F76652059004D6FC6
:101F40007665205A00457874727564657220004D7C
:101F50006F766520302E316D6D004D6F76652031C6
:101F60006D6D004D6F76652031306D6D004D6F7673
:101F700065206178697300457874727564657220B4
:101F8000004D6F7665205A004D6F76652059004DE3
:101F90006F7665205800457874727564657220000C
:101FA0004D6F7665205A004D6F76652059004D6F54
:101FB00076652058004D6F76656D656E7400436FD1
:101FC0006F6C646F776E0046616E20737065656438
:101FD00020310046616E20737065656420310042D7
:101FE000656400426564004E6F7A7A6C65004E6FDE
:101FF0007A7A6C65004D61696E0056547261762084
:102000006D696E005654726176206D696E00566D72
:10201000696E00566D696E00566D617820450056F8
:102020006D6178204500566D6178205A00566D61CB
:1020300078205A00566D6178205900566D617820DD
:102040005900566D6178205800566D61782058000F
:102050004D6F74696F6E00416D6178204500416D70
:102060006178204500416D6178205A00416D6178AA
:10207000205A00416D6178205900416D61782059E6
:1020800000416D6178205800416D61782058004111
:102090002D74726176656C00412D74726176656C89
:1020A00000412D7265747261637400412D72657414
:1020B0007261637400416363656C00416363656CC6
:1020C000004D6F74696F6E0056652D6A65726B0006
:1020D00056652D6A65726B00567A2D6A65726B00C3
:1020E000567A2D6A65726B0056792D6A65726B009F
:1020F00056792D6A65726B0056782D6A65726B0091
:1021000056782D6A65726B004D6F74696F6E00456D
:1021100073746570732F6D6D004573746570732FE4
:102120006D6D005A73746570732F6D6D005A737402
:102130006570732F6D6D005973746570732F6D6DBD
:10214000005973746570732F6D6D005873746570EA
:10215000732F6D6D005873746570732F6D6D004D26
:102160006F74696F6E004F6666004F6E2000456E9B
:102170006473746F702061626F7274005374657061
:10218000732F6D6D004A65726B00416363656C650A
:10219000726174696F6E0056656C6F636974790063
:1021A000416476616E6365642053657474696E671B
:1021B000730043616E6E6F7420656E746572207378
:1021C00075626469723A2000022E2E004D61696EBC
:1021D0000000457874727564656420746F74616C76
:1021E0003A2000256C642E25696D00004C6F6E67E7
:1021F000657374206A6F622074696D653A2000000F
:10220000546F74616C207072696E742074696D65AE
:102210003A2000436F6D706C657465643A2000501D
:1022200072696E7420436F756E743A20004D3730BA
:102230003220542564004D36303020423020542561
:1022400064004D373032203B2564004D373031205B
:10225000542564004368616E67652066696C616D32
:10226000656E74005072656865617420437573749F
:102270006F6D005072656865617420437573746F8B
:102280006D00507265686561742041425300507260
:10229000656865617420504C41004D61696E005065
:1022A00052494E542050415553454400554E4C4FD1
:1022B00041442046494C414D454E54004C4F414409
:1022C0002046494C414D454E54005075726765207B
:1022D0006D6F726500456E642066696C616D656E38
:1022E00074206368616E6765000020204E6F7A7A03
:1022F0006C653A20006368616E6765006F662074E4
:1023000068652066696C616D656E740057616974FB
:1023100020666F722073746172740020204E6F7A91
:102320007A6C653A2000200066696C616D656E7498
:1023300020756E6C6F6164005761697420666F72FE
:102340000020204E6F7A7A6C653A20002000506C95
:102350006561736520776169742E2E2E0048656172
:1023600074696E67206E6F7A7A6C650020204E6FFC
:102370007A7A6C653A2000200068656174206E6F7F
:102380007A7A6C652E00507265737320627574746E
:102390006F6E20746F0020204E6F7A7A6C653A2041
:1023A00000746F20636F6E74696E75652E2E2E003B
:1023B000616E6420707265737320627574746F6EE1
:1023C00000496E736572742066696C616D656E7428
:1023D0000020204E6F7A7A6C653A200020006669F2
:1023E0006C616D656E74206C6F6164005761697417
:1023F00020666F720020204E6F7A7A6C653A20005A
:10240000200066696C616D656E7420707572676519
:10241000005761697420666F7200506C6561736566
:1024200020776169742E0000436172642072656DCB
:102430006F766564004361726420696E73657274BF
:1024400065640000060900FE06018902FE20FFFE09
:1024500007FE06FE00000006000701060606020051
:10246000808080800080030303060103A0A0A005F4
:1024700007070600FF5050F850F8505005090906AC
:1024800000FE2070A8A07028A8702006080806008A
:10249000FF40A84810204854080507070600FF60C1
:1024A0009090609890680103030602038080800288
:1024B00007070602FF4080808080804002070706F1
:1024C00002FF80404040404080050505060000882E
:1024D00050F850880505050600002020F82020024D
:1024E00004040602FEC0404080050101060002F817
:1024F000020202060200C0C0040606060100101017
:102500002040808004060606010060909090906054
:1025100003060606010040C0404040E004060606EF
:1025200001006090102040F0040606060100F02033
:10253000601010E005060606000010305090F810FC
:10254000040606060100F080E01010E0040606060E
:1025500001006080E0909060040606060100F01023
:1025600010204040040606060100609060909060D4
:1025700004060606010060909070106002050506D2
:102580000200C0C000C0C00207070602FEC0C000B3
:10259000C0404080050505060000186080601805F1
:1025A0000303060001F800F8050505060000C03029
:1025B0000830C0040707060100609010604000402A
:1025C0000506060600007090A8B080700506060695
:1025D0000000205088F88888050606060000F0886C
:1025E000F08888F004060606010060908080906004
:1025F000040606060100E090909090E004060606AE
:102600000100F080E08080F0040606060100F08002
:10261000E0808080040606060100609080B0906033
:102620000406060601009090F090909003060606BE
:102630000100E040404040E005060606000038107A
:102640001010906004060606010090A0C0A09090B3
:102650000406060601008080808080F005060606DC
:10266000000088D8A8A8888804060606010090D033
:10267000B0909090050606060000708888888870E3
:10268000040606060100E09090E08080040707063B
:1026900001FF609090D0B06010040606060100E0D3
:1026A0009090E09090040606060100609040209013
:1026B00060050606060000F82020202020040606FB
:1026C000060100909090909060040606060100902C
:1026D0009090F060600506060600008888A8A8D8DB
:1026E000880506060600008850202050880506064A
:1026F000060000888850202020040606060100F00D
:1027000010204080F0030606060100E080808080F3
:10271000E004060606010080804020101003060633
:10272000060100E020202020E0050303060003202E
:1027300050880501010600FEF8020202060204802C
:10274000400404040601007090907004060606011F
:10275000008080E09090E004040406010070808016
:1027600070040606060100101070909070040404B6
:1027700006010060B0C0700406060601002050404B
:10278000E040400406060601FE6090907010600470
:1027900006060601008080E0909090030606060180
:1027A000004000C04040E00308080601FE20006031
:1027B000202020A0400406060601008080A0C0A0C2
:1027C00090030606060100C040404040E0050404B6
:1027D000060000D0A8A888040404060100E0909038
:1027E000900404040601006090906004060606014F
:1027F000FEE09090E080800406060601FE70909056
:10280000701010040404060100A0D08080040404A9
:1028100006010070C030E00406060601004040E0FA
:1028200040502004040406010090909070040404B9
:102830000601009090606005040406000088A8A8C6
:10284000500404040601009060609004060606012E
:10285000FE909090709060040404060100F0204007
:10286000F003070706010020404080404020010798
:10287000070602FF808080808080800307070601B2
:10288000008040402040408004020206010350A026
:10289000FFFFFFFFFFFFFFFFFFFFFFFFFFFFFFFF48
:1028A000FFFFFFFFFFFFFFFFFFFFFFFFFFFFFFFF38
:1028B000FF000000060007010606060200800080F7
:1028C0008080800406060601FF2070A0A07020050D
:1028D00007070600FF304840F04040F805050506B0
:1028E0000000A8508850A80506060600008850F889
:1028F00020F8200107070602FF808080008080808A
:102900000407070601FF708060906010E00301017A
:10291000060105A0060707060000788494A49484A5
:102920007803050506010160A06000E005050506C5
:1029300000002850A05028040303060100F01010E6
:10294000040101060102F00607070600007884B4BE
:10295000A4A48478040101060105F0040303060120
:10296000026090600507070600FF2020F820200085
:10297000F803050506010140A02040E00305050617
:102980000101C0204020C00202020602044080046F
:1029900005050601FF9090B0D080050606060000F0
:1029A00078E8E86828280101010602028002020294
:1029B0000602FE408003050506010140C04040E0DC
:1029C00003050506010140A04000E00505050600DD
:1029D00000A0502850A00508080600FF40C0405045
:1029E000703078100508080600FF40C040506808A5
:1029F00010380508080600FFC0204030F03078107D
:102A0000040707060100200020608090600507078A
:102A10000600004020205070888805070706000047
:102A200010202050708888050707060000205020DD
:102A300050708888050707060000285020507088CD
:102A40008805070706000050002050708888050799
:102A500007060000205020507088880506060600F2
:102A60000078A0F0A0A0B80408080601FE609080DD
:102A700080906020400407070601004020F080E0BD
:102A800080F00407070601002040F080E080F00499
:102A900007070601002050F080E080F004070706D9
:102AA00001005000F080E080F0030707060100807D
:102AB00040E0404040E00307070601002040E040BE
:102AC0004040E003070706010040A0E0404040E02E
:102AD000030707060100A000E0404040E0050606AD
:102AE0000600007048E848487004070706010050D7
:102AF000A090D0B09090040707060100402060909D
:102B0000909060040707060100204060909090605C
:102B100004070706010020506090909060040707AA
:102B200006010050A0609090906004070706010025
:102B300050006090909060050505060000885020C8
:102B400050880408080601FF1070B0B0D0D0E080B3
:102B5000040707060100402090909090600407074A
:102B60000601002040909090906004070706010045
:102B7000205090909090600407070601005000904C
:102B800090909060050707060000102088502020D4
:102B90002004060606010080E09090E0800406060E
:102BA0000601006090A0A090A00407070601004065
:102BB000200070909070040707060100204000700C
:102BC00090907004070706010020500070909070EC
:102BD00004070706010050A00070909070040606DC
:102BE0000601005000709090700407070601002055
:102BF00050207090907005040406000070A8B07812
:102C00000406060601FE7080807020400407070657
:102C1000010040200060B0C07004070706010020DA
:102C2000400060B0C070040707060100205000603B
:102C3000B0C070040606060100500060B0C070030A
:102C40000707060100804000C04040E00307070678
:102C50000100204000C04040E0030707060100409B
:102C6000A000C04040E0030606060100A000C040EE
:102C700040E0040707060100306010709090600487
:102C8000070706010050A000E09090900407070697
:102C900001004020006090906004070706010020BA
:102CA000400060909060040707060100205000601B
:102CB00090906004070706010050A00060909060AB
:102CC00004060606010050006090906005050506A8
:102CD00000002000F8002004040406010070B0D0B9
:102CE000E004070706010040200090909070040760
:102CF000070601002040009090907004070706012D
:102D000000205000909090700406060601005000CC
:102D1000909090700409090601FE20400090909068
:102D20007090600408080601FE8080E09090E080CA
:102D3000800408080601FE5000909090709060009A
:102D4000060900FE000000000001090008FE000066
:102D500005080806000040F0C88888987810050823
:102D600008060000C0F88888888888F805050506E8
:102D700000012030F830200508080600002070F817
:102D800020202020E00509090600FF2070A8A8B82F
:102D9000888870200509090600FFE080C0B0A828D7
:102DA0003028280509090600FFF8A888888888883F
:102DB000A8F8050A0A0600FE205050505088A8A81E
:102DC000887003030306000340A040486F6D696EDE
:102DD00067206661696C6564007A5F6D696E3A2090
:102DE00000795F6D696E3A2000785F6D696E3A20F8
:102DF000005265706F7274696E6720656E647374DB
:102E00006F70207374617475730A00656E717565F7
:102E10007565696E6720220053544F505045442E0B
:102E200020005072696E7465722073746F707065E3
:102E3000642064756520746F206572726F72732EE2
:102E40002046697820746865206572726F7220610F
:102E50006E6420757365204D39393920746F207286
:102E60006573746172742E202854656D706572618B
:102E7000747572652069732072657365742E2053B2
:102E8000657420697420616674657220726573745C
:102E9000617274696E67290A004E6F20436865632A
:102EA0006B73756D2077697468206C696E65206E30
:102EB000756D6265722C204C617374204C696E656F
:102EC0003A20004E6F20436865636B73756D207701
:102ED000697468206C696E65206E756D6265722C10
:102EE000204C617374204C696E653A2000636865FC
:102EF000636B73756D206D69736D617463682C20ED
:102F00004C617374204C696E653A20004C696E65A3
:102F1000204E756D626572206973206E6F74204C4F
:102F2000617374204C696E65204E756D6265722BFD
:102F3000312C204C617374204C696E653A20004D31
:102F4000313130004D3331005344207265616420CB
:102F50006572726F720A00446F6E65207072696EDE
:102F600074696E672066696C650A0020496E766137
:102F70006C69642065787472756465722000000065
:102F80000000000000000000000000009543000069
:102F90008A4300007A43486F6D652058592066695E
:102FA0007273740A00486F6D652058592066697203
:102FB00073740046696C616D656E74207573656429
:102FC0003A200053746174733A20002C204C6F6EC9
:102FD00067657374206A6F623A2000546F74616C85
:102FE0002074696D653A200053746174733A20004F
:102FF0002C204661696C65643A20002C2046696E7D
:1030000069736865643A20005072696E74733A207F
:103010000053746174733A200020573A0045787465
:10302000727564657220436F6F6C696E672E2E2E09
:103030000045787472756465722048656174696EC4
:10304000672E2E2E0020573A0042656420636F6F72
:103050006C696E672E2E2E0042656420686561746F
:10306000696E672E2E2E00205A3A0020593A002011
:10307000436F756E7420583A0020453A00205A3A42
:103080000020593A00583A003A004361703A002053
:103090005A00205900580020204D61783A20002025
:1030A0005A00205900580020204D696E3A20004FE8
:1030B0006E20004F666600536F667420656E647301
:1030C000746F70733A20004B642000236465666956
:1030D0006E652044454641554C545F004B692000C5
:1030E00023646566696E652044454641554C545FCE
:1030F000004B70200023646566696E652044454678
:1031000041554C545F00504944204175746F7475AB
:103110006E652066696E69736865642120507574F8
:1031200020746865206C617374204B702C204B698F
:1031300020616E64204B6420636F6E7374616E74E3
:10314000732066726F6D2062656C6F7720696E7494
:103150006F20436F6E66696775726174696F6E2E5A
:10316000680A00504944204175746F74756E65207B
:103170006661696C6564212074696D656F75740A98
:1031800000453120544845524D414C2052554E4146
:103190005741590042454420544845524D414C2026
:1031A00052554E4157415900546865726D616C200B
:1031B00052756E61776179004531204865617469A7
:1031C0006E67206661696C656400426564206865AD
:1031D0006174696E67206661696C65640048656149
:1031E00074696E67206661696C65640050494420AB
:1031F0004175746F74756E65206661696C656421D4
:103200002054656D706572617475726520746F6F9E
:1032100020686967680A00204B643A2000204B69E7
:103220003A2000204B703A20000A20436C617373EF
:10323000696320504944200A002054753A20002038
:103240004B753A2000206D61783A2000206D696E40
:103250003A200020643A200020626961733A20001D
:10326000504944204175746F74756E6520737461A4
:1032700072740A00504944204175746F74756E650C
:10328000206661696C656421204261642065787400
:103290007275646572206E756D6265720A00434FC7
:1032A0004D4D554E49434154494F4E004452595299
:1032B000554E004552524F525300494E464F00451D
:1032C00043484F0020202020202846312E30203D2A
:1032D0002066756C6C20636F7272656374696F6EC3
:1032E0002C2046302E30203D206E6F20636F72728E
:1032F000656374696F6E290A002020466164653A2F
:1033000020202020202020202020202020202020BD
:103310002046002020536D6F6F7468696E67202807
:103320006D6D293A202020202020205300202044A9
:10333000697374616E636520286D6D293A202020C1
:1033400020202020205A004261636B6C617368204A
:10335000636F7272656374696F6E20697320616355
:10336000746976653A0A004261636B6C6173682028
:10337000636F7272656374696F6E20697320696E22
:103380006163746976653A0A004261636B6C6173CC
:1033900068206D6561737572656D656E7420286D4A
:1033A0006D293A202000496E736572742066696C3D
:1033B000616D656E7420616E642070726573732038
:1033C000627574746F6E20286F72204D3130382909
:1033D0000A00507265737320627574746F6E2028D2
:1033E0006F72204D3130382920746F206865617408
:1033F000206E6F7A7A6C650A00496E73657274206C
:1034000066696C616D656E7420616E6420707265B2
:10341000737320627574746F6E20286F72204D3143
:103420003038290A0047322F473320626164207008
:103430006172616D65746572730A00536C656570C5
:103440002E2E2E00436C69636B20746F207265739F
:10345000756D652E2E2E004E6F206D6F76652E00D9
:10346000456E642066696C65206C6973740A00425D
:103470006567696E2066696C65206C6973740A0003
:103480004D31323500286E6F2066696C6529004326
:10349000757272656E742066696C653A20005344DB
:1034A000207072696E74696E67206279746520009D
:1034B0004E6F74205344207072696E74696E670A8F
:1034C0000044656C6574696F6E206661696C656443
:1034D0002C2046696C653A200046696C652064655D
:1034E0006C657465643A005072696E742074696D1D
:1034F000653A200050726F7465637465642050698A
:103500006E0A000001222B1A0CFF2829FF24311C0F
:103510000BFF4527FF232F1B0AFF4443FFFFFF0438
:10352000030806020225301D4142FF033809FF3619
:103530006F666600BF32BA32B332AC329E32444557
:103540004255473A004D3131332053006F6B004CE8
:10355000756C7A426F742054415A2035204F66664C
:103560002E00544845524D414C5F50524F544543F4
:1035700054494F4E004155544F5245504F52545F9D
:1035800053445F53544154555300454D45524745AC
:103590004E43595F50415253455200434153455F9A
:1035A0004C494748545F4252494748544E4553534B
:1035B00000544F47474C455F4C49474854530053CC
:1035C0004F4654574152455F504F57455200425560
:1035D000494C445F50455243454E54004C45564576
:1035E0004C494E475F44415441005A5F50524F424C
:1035F00045004155544F4C4556454C005052494E9C
:10360000545F4A4F420050524F4752455353004176
:1036100055544F5245504F52545F54454D500056EB
:103620004F4C554D455452494300454550524F4D1E
:103630000053455249414C5F584F4E5F584F4646E4
:10364000004649524D574152455F4E414D453A4D16
:1036500061726C696E20204649524D574152455F58
:1036600056455253494F4E3A312E312E392E33346E
:103670002045585452554445525F545950453A5389
:10368000696E676C65457874727564657220534F16
:10369000555243455F434F44455F55524C3A687419
:1036A0007470733A2F2F636F64652E616C65706858
:1036B0006F626A656374732E636F6D2F64696666EB
:1036C0007573696F6E2F4D41524C494E2050524FC9
:1036D000544F434F4C5F56455253494F4E3A312E4B
:1036E00030204D414348494E455F545950453A4C6E
:1036F000756C7A426F742054415A203520455854D5
:1037000052554445525F434F554E543A312055551A
:1037100049443A63333235356339362D34303937DD
:103720002D343838342D386564302D646564326644
:10373000663962616536310A002F2F20004D313421
:103740003520533C696E6465783E206F7574206F38
:10375000662072616E67652028302D31290A0020AD
:103760005400205200416363656C65726174696F37
:103770006E3A2050004F66667365747320617070F6
:103780006C696564004572723A20546F6F206661FF
:10379000722100546F6F206661722066726F6D2017
:1037A0007265666572656E636520706F696E740A16
:1037B0000020466C6F773A2000496E76616C696430
:1037C0002065787472756465720A0020643A00207E
:1037D000693A0020703A0043290A0061626C65640E
:1037E00020286D696E2074656D702000436F6C64D5
:1037F000206578747275646573206172652000209D
:10380000643A0020693A0020703A004E6F206361EC
:103810007365206C696768740A00454550524F4DC6
:10382000204F4B0A003F4B2076616C7565206F7509
:1038300074206F662072616E67652028302D3130EC
:10384000292E0A00416476616E6365204B3D00417C
:1038500063746976652045787472756465723A2080
:1038600000496E76616C6964206578747275646570
:10387000720A00526573656E643A2000204200208F
:1038800050006F6B0020746F6F206C6F6E67206547
:103890007874727573696F6E2070726576656E7478
:1038A00065640A0020636F6C6420657874727573B8
:1038B000696F6E2070726576656E7465640A006269
:1038C0007573793A2070617573656420666F722034
:1038D000696E7075740A00627573793A207061754B
:1038E00073656420666F7220757365720A00627575
:1038F00073793A2070726F63657373696E670A003B
:103900004B494C4C45442E20004B494C4C206361A4
:103910007573656420627920746F6F206D756368BC
:1039200020696E6163746976652074696D65202D08
:103930002063757272656E7420636F6D6D616E6465
:103940003A2000506C656173652072657365740080
:103950005052494E5445522048414C544544005021
:1039600072696E7465722068616C7465642E206B78
:10397000696C6C28292063616C6C6564210A000005
:1039800000000000000000000000000000484200AD
:1039900000484200004040000000005761726E691C
:1039A0006E673A20486F6D696E672042756D7020B2
:1039B00044697669736F72203C20310A0002020468
:1039C0000000A0400000A04000000040000095431F
:1039D00000008A4300007A43FFFFFF4D3630303A43
:1039E00020546F6F20636F6C6400486F74656E6461
:1039F00020746F6F20636F6C640A002F2F616374F3
:103A0000696F6E3A70617573650A00496E7365720D
:103A1000742066696C616D656E7420616E642070DF
:103A20007265737320627574746F6E20286F7220D4
:103A30004D313038290A002F2F616374696F6E3A57
:103A4000726573756D650A007C3C3E5E2B3D3F2FB1
:103A50005B5D3B2C2A225C0024F4D43050C38E20C2
:103A6000C2A24017828B7011127A910D816CD90A13
:103A7000A861E108C7586607615143061E4B5D0502
:103A8000C145A7041A411104093D98037139310356
:103A90004036DB0265339102D4305402802E1D0281
:103AA000632CEE01752AC501B028A0011027810101
:103AB0008F2564012B244B01E0223401AC211F012E
:103AC0008D200D01801FFC00841EED00971DDF007E
:103AD000B81CD200E61BC600201BBC00641AB20052
:103AE000B219A8000A19A0006A189900D11791000C
:103AF00040178B00B516840031167E00B31579008F
:103B00003A157300C7146F0058146A00EE1366006C
:103B10008813630025135E00C7125B006C12570008
:103B200015125400C111510070114F0021114B00AA
:103B3000D61049008D104700461044000210420084
:103B4000C00F4000800F3E00420F3C00060F3B00BC
:103B5000CB0E3800930E37005C0E3500270E340074
:103B6000F30D3200C10D3100900D3000600D2E00BC
:103B7000320D2D00050D2C00D90C2B00AE0C2900A8
:103B8000850C29005C0C2700350C27000E0C260044
:103B9000E80B2400C40B2400A00B23007D0B2300A2
:103BA0005A0B2100390B2100180B2000F80A1F00C6
:103BB000D90A1E00BB0A1E009D0A1D00800A1D00B6
:103BC000630A1C00470A1B002C0A1B00110A1A007A
:103BD000F7091A00DD091900C4091900AB09190019
:103BE000920917007B091800630917004C09160099
:103BF00036091600200916000A091500F5081500F7
:103C0000E0081400CC081400B8081400A40814003C
:103C1000900813007D0812006B081300580812006A
:103C20004608120034081100230811001208110080
:103C300001081100F0071000E0071000D007100085
:103C4000C0071000B0070F00A107100091070E0079
:103C500083070F0074070F0065070E0057070E005B
:103C600049070E003B070D002E070E0020070D0030
:103C700013070D0006070D00F9060C00ED060D00F8
:103C8000E0060C00D4060C00C8060C00BC060C00B4
:103C9000B0060C00A4060B0099060C008D060B0064
:103CA00082060B0077060B006C060B0061060A000B
:103CB00057060B004C060A0042060A0038060A00A6
:103CC0002E060A0024060A001A060A001006090039
:103CD00007060A00FD050900F4050900EB050900C7
:103CE000E2050900D9050900D0050900C70509004A
:103CF000BE050900B5050800AD050800A5050900C9
:103D00009C050800940508008C050800840508003F
:103D10007C050800740508006C05070065050800AF
:103D20005D050700560508004E050700470507001A
:103D30004005080038050700310507002A0507007F
:103D4000230507001C050600160507000F050700E0
:103D50000805060002050700FB040600F50407003D
:103D6000EE040600E8040600E2040700DB04060097
:103D7000D5040600CF040600C9040600C3040600EB
:103D8000BD040600B7040600B1040500AC0406003B
:103D9000A6040600A00405009B0406009504050087
:103DA000900406008A0405008504050080040600CE
:103DB0007A04050075040500700405006B04050015
:103DC00066040500610405005C0405005704050055
:103DD000520405004D040500480405004304050095
:103DE0003E0404003A0405003504050030040400D4
:103DF0002C04050027040400230405001E0404000D
:103E00001A04040016040500110404000D04040043
:103E1000090405000404040000040400FC03040079
:103E2000F8030400F4030400F0030400EC030400AE
:103E3000E8030400E4030400E0030400DC030400DE
:103E4000D8030400D4030400D0030400CC0304000E
:103E5000C8030300C503030024F404D9201BC40CC9
:103E60005C0E9804C4095F0265077101F405F9004E
:103E7000FB04B30048048700C103690058035500E0
:103E800003034500BE023A008402310053022A00B7
:103E90002902250004022000E4011C00C8011900C9
:103EA000AF01170098011400840113007101100084
:103EB0006101100051010E0043010D0036010B009D
:103EC0002B010B0020010B00150109000C0109005A
:103ED00003010800FB000800F3000800EB000700E6
:103EE000E4000600DE000600D8000600D20006004E
:103EF000CC000500C7000500C2000500BD0004009D
:103F0000B9000400B5000400B1000400AD000400D5
:103F1000A9000400A5000300A20003009F00040004
:103F20009B0003009800030095000200930003002B
:103F3000900003008D0002008B0003008800020047
:103F40008600020084000300810002007F0002005E
:103F50007D0002007B000200790002007700010072
:103F6000760002007400020072000100710002007D
:103F70006F0002006D0001006C0002006A00010089
:103F80006900020067000100660001006500010091
:103F90006400020062000100610001006000010095
:103FA0005F0002005D0001005C0001005B00010099
:103FB0005A0001005900010058000100570001009B
:103FC000560001005500010054000100530000009C
:103FD0005300010052000100510001005000010097
:103FE0004F0001004E0000004E0001004D00010096
:103FF0004C0001004B0000004B0001004A00010092
:10400000490001004800000048000100470001008D
:104010004600000046000100450000004500010088
:104020004400010043000000430001004200000082
:104030004200010041000000410001004000010079
:104040003F0000003F0001003E0000003E00010074
:104050003D0000003D0001003C0000003C0000006D
:104060003C0001003B0000003B0001003A00000062
:104070003A0001003900000039000100380000005A
:104080003800000038000100370000003700010050
:104090003600000036000000360001003500000048
:1040A000350000003500010034000000340000003D
:1040B0003400010033000000330000003300010031
:1040C0003200000032000000320001003100000028
:1040D000310000003100010030000000300000001D
:1040E000300001002F0000002F0000002F00000012
:1040F0002F0001002E0000002E0000002E00010005
:104100002D0000002D0000002D0000002D000100FA
:104110002C0000002C0000002C0000002C000100EE
:104120002B0000002B0000002B0000002B000100E2
:104130002A0000002A0000002A0000002A000100D6
:1041400029000000290000002900000029000000CB
:1041500029000100280000002800000028000000BD
:1041600028000000280001002700000027000000B0
:1041700027000000270000002700010026000000A3
:104180002600000026000000260000002600010096
:10419000250000002500000025000000250000008B
:1041A000250000002500010024000000240000007C
:1041B000240000002400000024000100230000006F
:1041C0002300000023000000230000002300000063
:1041D0002300000023000100220000002200000054
:1041E0002200000022000000220000002200010046
:1041F000210000002100000021000000210000003B
:10420000210000002100000021000100200000002A
:10421000200000002000000020000000200000001E
:104220002000000020000000200001001F0000000E
:104230001F0000001F0000001F0000001F00000002
:104240001F0000001F0001001E0000001E000000F3
:104250001E0000001E000000C23100001C260000ED
:10426000F4190000D80F0000EB080000C0040000A3
:1042700075020000400100004D6963726F73746540
:10428000707320756E617661696C61626C650A009D
:1042900045313A200045303A20005A3A2000593A38
:1042A0002000583A20004D53312C4D533220506994
:1042B0006E730A006265640A002C2073797374655A
:1042C0006D2073746F70706564212048656174653A
:1042D000725F49443A2000426564206865617469F0
:1042E0006E67206661696C65640048656174696E1B
:1042F00067206661696C65640045312048656174BA
:10430000696E67206661696C6564004865617469FF
:104310006E67206661696C6564004B494C4C45448E
:104320002E20001000AD0330016A0150022B0170F5
:10433000030A019004F500B005E500D006D800F0AE
:1043400007CE001009C500300ABE00500BB7007040
:104350000CB100900DAB00B00EA600D00FA200F083
:10436000109D0010129900301395005014920070A7
:10437000158E0090168B00B0178700D0188400F0BF
:10438000198100101B7E00301C7B00501D790070CD
:104390001E7600901F7300B0207000D0216E00F0D8
:1043A000226B0010246900302566005026630070DF
:1043B00027610090285E00B0295C00D02A5900F0E7
:1043C0002B5600102D5400302E5100502F4E0070EF
:1043D000304B0090314800B0324500D0334200F0FD
:1043E000343E0010363B0030373700503833007011
:1043F000392E00903A2900B03B2300D03C1B00F03E
:104400003D1100103F0100F03F00001000C90210F4
:10441000012C014001220170011801B0010E01F0D0
:104420000104015002FA00B002F0003003E600D0AF
:1044300003DC009004D2007005C800A006BE000096
:1044400008B400B009AA00D00BA000600E9600606E
:10445000118C000015820020197800C01D6E00A08C
:10446000226400B0275A00902C500000314600E032
:10447000343C0010383200903A2800603C1E00A006
:104480003D1400803E0A00203F0000453120457267
:10449000723A204D415854454D50004572723A20B1
:1044A0004D415854454D5020424544004D415854CB
:1044B000454D5020747269676765726564004531C7
:1044C000204572723A204D494E54454D5000457278
:1044D000723A204D494E54454D5020424544004DBE
:1044E000494E54454D502074726967676572656422
:1044F000004D383420582059205A204500202F00E4
:104500002042403A0020403A004572726F72207794
:10451000726974696E6720746F20454550524F4D23
:10452000210A00454550524F4D2064617461736902
:104530007A65206572726F722E0A00290A00206265
:10454000797465733B2063726320005365747469EA
:104550006E67732053746F726564202800290A0007
:104560002062797465733B2063726320002073744A
:104570006F7265642073657474696E677320726509
:1045800074726965766564202800202863616C6315
:10459000756C6174656429210A0020213D20004565
:1045A0004550524F4D20435243206D69736D6174E5
:1045B0006368202D202873746F72656429200020A1
:1045C00053697A653A2000496E6465783A20002084
:1045D0004D61726C696E3D563535290A0028454596
:1045E00050524F4D3D00454550524F4D207665721B
:1045F00073696F6E206D69736D6174636820004824
:10460000617264636F6465642044656661756C748F
:104610002053657474696E6773204C6F61646564C0
:104620000A0028230000282300006400000010274F
:104630000000000096430000964300004040000048
:10464000C8410000C9420000C9420000C8440080BF
:104650004F4420286D6D290020204D363033200036
:104660002055004C0046696C616D656E74206C6F5E
:1046700061642F756E6C6F6164206C656E67746821
:10468000733A0A0020204D393030204B004C696EBF
:1046900065617220416476616E63653A0A00204468
:1046A0000020490020204D333034205000204400A9
:1046B00020490020204D3330312050005049442003
:1046C00073657474696E67733A0A0020460020426D
:1046D0000020480020204D3134352053004D6174B6
:1046E000657269616C2068656174757020706172B3
:1046F000616D65746572733A0A00205A0020590092
:1047000020204D323036205800486F6D65206F668E
:10471000667365743A0A00204500205A002059004B
:1047200020580020540020530020204D32303520E6
:10473000420020453C6D61785F655F6A65726B3E43
:104740000020583C6D61785F785F6A65726B3E202F
:10475000593C6D61785F795F6A65726B3E205A3CA7
:104760006D61785F7A5F6A65726B3E004164766165
:104770006E6365643A20423C6D696E5F7365676D78
:10478000656E745F74696D655F75733E20533C6D33
:10479000696E5F66656564726174653E20543C6D48
:1047A000696E5F74726176656C5F6665656472617F
:1047B00074653E0020540020520020204D323034D9
:1047C000205000416363656C65726174696F6E208F
:1047D00028756E6974732F7332293A20503C7072B9
:1047E000696E745F616363656C3E20523C726574F0
:1047F000726163745F616363656C3E20543C7472E4
:104800006176656C5F616363656C3E0A00204500FC
:10481000205A0020590020204D3230312058004DC0
:104820006178696D756D20416363656C6572617453
:10483000696F6E2028756E6974732F7332293A0A76
:1048400000204500205A0020590020204D323033EE
:104850002058004D6178696D756D206665656472DC
:10486000617465732028756E6974732F73293A0A11
:1048700000204500205A0020590020204D393220C8
:10488000580053746570732070657220756E69747A
:104890003A0A0020204D3230302044300A002020D7
:1048A0004D3230302044002044697361626C65648D
:1048B0000A0046696C616D656E7420736574746975
:1048C0006E67733A0020204D3134392043203B205D
:1048D000556E69747320696E2043656C73697573D6
:1048E0000A002020473231202020203B001FFFFFFC
:1048F000FFFFFFFF600000000001FF40000000001C
:1049000000FF8000000000007F83CF00000C303FDC
:1049100087FF80000C301F867980000C000F8C30E0
:10492000C7838C30E78C30CFC7CC31F38C30DCECD4
:10493000EC33B98C30D86C6C33198C30D06C0C33B0
:10494000198C30D86C0C33198C30DC6C0E3B198C04
:1049500030CF7C079F198C30C77C038F1940000033
:1049600000000002600000000000061FFFFFFFFFC4
:10497000FFF82020506C616E6E6572427566666548
:104980007242797465733A20002046726565204D45
:10499000656D6F72793A2000436F6D70696C656464
:1049A0003A204A616E20323020323032330A002001
:1049B0007C20417574686F723A2028416C6570687C
:1049C000204F626A6563747320496E632E2C204CFD
:1049D000756C7A426F7420476974205265706F73EA
:1049E00069746F7279290A004A616E203230203270
:1049F00030323332313A31393A333900204C617335
:104A00007420557064617465643A2000312E312E33
:104A1000390A004D61726C696E0020536F667477BD
:104A20006172652052657365740A00205761746372
:104A300068646F672052657365740A002042726F64
:104A4000776E206F75742052657365740A00204577
:104A5000787465726E616C2052657365740A0050DB
:104A60006F77657255700A0073746172740A006121
:104A700075746F25692E67006572726F7220777288
:104A80006974696E6720746F2066696C650A0045F9
:104A90006E6473746F707320256320256320256313
:104AA00020256300205A3A0020593A0020583A0045
:104AB000656E6473746F7073206869743A20004483
:104AC0006F6E6520736176696E672066696C652E0E
:104AD0000A004D32390047302058313730205932E2
:104AE00039302046333030300A4D31313720507262
:104AF000696E742061626F727465642E00486F7411
:104B0000656E6420746F6F20636F6C640A00000030
:104B10000A0B02090C0D0E08070304010000000037
:104B20000000000000000000000000000000000085
:104B30000000000000000000000012111000000042
:104B40000000000000000000000000000000000065
:104B500000000000486F6D652025732573257320C4
:104B60006669727374002066697273740A005A0071
:104B700059005800486F6D652000556E6B6E6F7759
:104B80006E20636F6D6D616E643A2022004D323489
:104B9000004D32332025730020746F6F206C6F6ED0
:104BA0006720657874727573696F6E2070726576B0
:104BB000656E7465640A0020636F6C6420657874A8
:104BC000727573696F6E2070726576656E74656458
:104BD0000A0053442063617264206F6B0A006F7097
:104BE000656E526F6F74206661696C65640A007649
:104BF0006F6C756D652E696E6974206661696C6590
:104C0000640A00534420696E6974206661696C0A05
:104C10000057726974696E6720746F2066696C65ED
:104C20003A20006F70656E206661696C65642C20A7
:104C300046696C653A20006F70656E206661696C2C
:104C400065642C2046696C653A200046696C6520D5
:104C500073656C65637465640A002053697A653A0C
:104C6000200046696C65206F70656E65643A2000AF
:104C70002066696C653A2000646F696E6700667231
:104C8000657368004E6F772000454E4420535542AF
:104C9000524F5554494E450A002220706F7300222E
:104CA00020706172656E743A2200535542524F551E
:104CB00054494E452043414C4C20746172676574E1
:104CC0003A22004B494C4C45442E200074727969BD
:104CD0006E6720746F2063616C6C207375622D6742
:104CE000636F64652066696C6573207769746820FA
:104CF000746F6F206D616E79206C6576656C732EB4
:104D0000204D4158206C6576656C2069733A0045EA
:104D100072726F723A006F70656E206661696C65C1
:104D2000642C2046696C653A200043616E6E6F7496
:104D3000206F70656E207375626469722000656310
:104D4000686F3A00453120544845524D414C20523D
:104D5000554E415741590042454420544845524D13
:104D6000414C2052554E4157415900546865726D6F
:104D7000616C2052756E6177617900000022002518
:104D80000028002B002E0031003400020100000535
:104D90000108010B0100002100240027002A002D3A
:104DA000003000330001010000040107010A010581
:104DB000050505070508080808020202020A0A0894
:104DC00008040404040101010101010101030303BA
:104DD0000303030303040707070C0C0C0C0C0C0C57
:104DE0000C0202020206060606060606060B0B0B5E
:104DF0000B0B0B0B0B010210202008081020401099
:104E0000204080020102010804020101020408108E
:104E100020408080402010080402018004020180AC
:104E200040201008040201080402010102040810D5
:104E30002040800102040810204080004AC6F09CF7
:104E400011241FBECFEFD1E2DEBFCDBF00E00CBF0B
:104E500013E0A0E0B2E0E2E6FAE102E00BBF02C03C
:104E600007900D92A639B107D9F725E1A6E9B3E07D
:104E700001C01D92A83FB207E1F717E2CFE1D7E2E8
:104E800000E006C021970109802FFE010F949B0CC2
:104E9000CE31D10780E00807A9F70E941FF50D94D5
:104EA000200D0C94000090913108E92FF0E0E45DB2
:104EB000F74F80839F5F953040F490933108809145
:104EC000160A8F5F8093160A089510923108F7CF63
:104ED00080E1ECE1F8E0A2E3B5E001900D928A9563
:104EE000E1F70895FC0190E080E02491222339F05D
:104EF0002491207C203809F001963196F6CF089550
:104F00008091440A813041F0823019F48CEA92E2B7
:104F100008958FE992E208958CEB92E208956091F2
:104F20002E0270912F02072E000C880B990B0F9404
:104F30004D052AE037ED43E25CE30F94AC05209188
:104F4000F8053091F9054091FA055091FB050F9451
:104F5000AC056093590270935A0280935B02909360
:104F60005C020895282F1092080480918912909174
:104F70008A12A0918B12B0918C1281309048A105B9
:104F8000B10540F01092891210928A1210928B1281
:104F900010928C128091FD03882331F08091891248
:104FA0008093F103109286128091F2031816FCF49C
:104FB000082E000C990B821B91092091F103022EFF
:104FC000000C330B2817390794F097FF02C090E0CC
:104FD00080E08093F103092E000CAA0BBB0B809399
:104FE000891290938A12A0938B12B0938C128091A5
:104FF000F1036623A9F09091F303891714F48093C9
:10500000F3032091F303022E000C330B2C5F3F4F70
:10501000482F082E000C550B241735071CF484501C
:105020008093F30308959091050194709093030188
:1050300087FD68C0A3989091050190959470909316
:1050400003019091050194709093030186FD66C061
:10505000A39890910501909594709093030190917D
:10506000050194709093030185FD56C0A39890911B
:1050700005019095947090930301909105019470AF
:105080009093030184FD46C0A398909105019095EB
:105090009470909303019091050194709093030193
:1050A00083FD36C0A39890910501909594709093DC
:1050B00003019091050194709093030182FD26C035
:1050C000A39890910501909594709093030190910D
:1050D000050194709093030181FD16C0A3988091FF
:1050E000050180958470809303018091050184708F
:1050F00080930301A398809105018095847080932B
:1051000003010895A39A97CFA39AE9CFA39AD9CF81
:10511000A39AC9CFA39AB9CFA39AA9CFA39A99CF9B
:10512000AF92BF92CF92DF92EF92FF920F931F93B5
:10513000CF93DF936C017B018B01040F151FEB01F3
:105140005E01AE18BF08C017D10759F06991D601AA
:10515000ED91FC910190F081E02DC6011995892B0C
:1051600079F7C501DF91CF911F910F91FF90EF90DB
:10517000DF90CF90BF90AF900895089590E080E0C9
:10518000089580E008950B96FC01849108950A9695
:10519000FC0184910895FC0184910895FCDF88232B
:1051A00021F0823011F083E0089586E00895FC013B
:1051B000E60FF11D849190E0982F88273196E491B5
:1051C0008E0F911D089568E0F2CF66E0F0CF08954C
:1051D000DC011696ED91FC91179712968C9112971F
:1051E000481B15968C91483018F0E80FF11D477058
:1051F000382F369536953695562F577080E890E0C3
:1052000002C0959587955A95E2F7439F402D11244A
:10521000669566956695460F5527551FE40FF51F51
:105220003081222319F0832B808308958095832376
:10523000FBCFFB014181DC0112962C9112974217A2
:1052400060F013962C911397241738F0608115960F
:105250002C91621710F42481BBCF0895FC0180814A
:105260009281980F92832181921760F494819F5FBD
:1052700094839381890F821710F08FEF820F8383BD
:1052800081E0089580E00895FC01128280818150C0
:105290008383148208959F92AF92BF92CF92DF9240
:1052A000EF92FF920F931F93CF93DF935B01E9017E
:1052B0004A3009F4BAC0453109F05EC0DB011296EC
:1052C000ED91FC91F280C681D781A49A88E290E0AA
:1052D0000197F1F7EF2CE29420EFE22230E1932ED8
:1052E0009F0C48E2C42ED12C88EF9DDEC6010197A9
:1052F000F1F7BFE1BF1508F482C08F2D8077806879
:1053000092DE8E2D90DEC6010197F1F780E88BDEEC
:1053100080E089DEC6010197F1F78AEF84DEC601DD
:105320000197F1F78E01005F1F4F8881807F7BDE40
:1053300089918295807F77DEC017D107B1F7C601CA
:105340000197F1F7F394E0E1EE0EF910CDCFA498B8
:10535000D50112960D911C91C80180DF811121C2E7
:10536000DF91CF911F910F91FF90EF90DF90CF9041
:10537000BF90AF909F900895FB010281138144512B
:10538000443308F050C0E42FF0E08827E553F64D91
:105390008F4F0D949B0C7B2BAC29132AC12B132A06
:1053A000132A132A132A132A132A132A132A132A15
:1053B000132A132A132A132A132A132A132A132A05
:1053C000132A132A132A132A132A132A132A132AF5
:1053D000132ABC2B132A132A132A132A132A132A3B
:1053E000132A132A8D2B132A132A132A132A132A5A
:1053F000132A132A132A132A132ADE2B0F2A80EECC
:105400008F0D8068807F0FDE8F2D8295807F0BDE71
:10541000C6010197F1F780E806DE80E87ACFD8016F
:1054200011968C91888381E09BCF9C9AA4989B9A3B
:10543000A398809104018460809304018091050108
:105440008095847080930301A49A88E290E001978C
:10545000F1F788E790E0CEE9DFE0FE013197F1F760
:105460000197D9F788EFDFDD08E210E0C801019766
:10547000F1F780E2D8DD80E0D6DDC8010197F1F7D1
:1054800080E0D1DD80E8CFDDC8010197F1F780E051
:10549000CADD80E1C8DDC8010197F1F7CE010197AF
:1054A000F1F7CE010197F1F7CE010197F1F7CE01A7
:1054B0000197F1F7CE010197F1F7CE010197F1F7CE
:1054C000CE010197F1F7CE010197F1F7CE010197D7
:1054D000F1F7CE010197F1F7CE010197F1F7CE0177
:1054E0000197F1F7CE010197F1F7CE010197F1F79E
:1054F0002197F1F780E297DD80E495DDC8010197FF
:10550000F1F780E290DD80E68EDDC8010197F1F7CA
:1055100000E010E0C8E2D0E0812F8077806883DD72
:10552000802F81DDCE010197F1F780E87CDD80E0FE
:105530007ADDCE010197F1F78AEF75DDCE01019793
:10554000F1F790E280910501847080930301A398A4
:1055500080910501809584708093030180910501FD
:10556000847080930301A3988091050180958470D5
:105570008093030180910501847080930301A398B7
:1055800080910501809584708093030180910501CD
:10559000847080930301A3988091050180958470A5
:1055A0008093030180910501847080930301A39887
:1055B000809105018095847080930301809105019D
:1055C000847080930301A398809105018095847075
:1055D0008093030180910501847080930301A39857
:1055E000809105018095847080930301809105016D
:1055F000847080930301A398809105018095847045
:105600008093030180910501847080930301A39826
:10561000809105018095847080930301809105013C
:10562000847080930301A398809105018095847014
:105630008093030180910501847080930301A398F6
:10564000809105018095847080930301809105010C
:10565000847080930301A3988091050180958470E4
:105660008093030180910501847080930301A398C6
:1056700080910501809584708093030180910501DC
:10568000847080930301A3988091050180958470B4
:105690008093030180910501847080930301A39896
:1056A00080910501809584708093030180910501AC
:1056B000847080930301A398809105018095847084
:1056C00080930301FE013197F1F7915009F03ACF31
:1056D00088EFA9DCCE010197F1F71F5F005F103260
:1056E00009F01ACF80E09FDC80EC9DDC2197F1F778
:1056F000A49881E035CED80115964C91159750E0CD
:10570000440F551F70E060E016968D919C910F94A8
:10571000C10CC801B9DD81E023CE89812B81D8017C
:1057200012966C91129713964C91213009F465C032
:10573000233009F047C038EF380F582F91E0431756
:1057400008F490E041E0531708F040E031E05617CC
:1057500008F430E0592F542B352319F4942309F41D
:1057600062CEFA8030E0F901E95DFC4FD0802D5D1A
:105770003C4FF901E0803EC0B901C8015ADD81E02B
:10578000EFCD1882D80112968C91129789831596C5
:105790008C91159781508A8313968C918B8381E02D
:1057A000DFCDF801458150E0440F551F70E060E007
:1057B000868197810F94C10C81E0D2CDF80185815B
:1057C000888331CE481708F42ECE861708F42BCEE6
:1057D000FA80E12CD12C243068F4C4CFBE01C8017A
:1057E00028DD898198819D0D98838E0D8983FF0C1A
:1057F00009F419CEF7FEF6CFF1CF58E0580F382F45
:105800009DCF81E0089508958150823108F05AC0FB
:10581000E82FF0E08827E05FF34D8F4F0D949B0C4D
:10582000302C342C222C282C2C2C622C372C3D2C68
:10583000412C472C4B2C4F2C552C592C622C5D2C79
:10584000632C672C809180008F778093800008956F
:10585000809180008F7DF9CF80918000877FF5CF88
:1058600084B58F7784BD089584B58F7DFBCF8091FB
:10587000B0008F778093B00008958091B0008F7D45
:10588000F9CF809190008F77809390000895809158
:1058900090008F7DF9CF80919000877FF5CF809128
:1058A000A0008F778093A00008958091A0008F7D45
:1058B000F9CF8091A000877FF5CF809120018F776D
:1058C000809320010895809120018F7DF9CF8091F0
:1058D0002001877FF5CF3FB7F89480919B0390918B
:1058E0009C03A0919D03B0919E0326B5A89B05C083
:1058F0002F3F19F00196A11DB11D3FBFBA2FA92F4F
:10590000982F8827BC01CD01620F711D811D911D4B
:1059100042E0660F771F881F991F4A95D1F70895B7
:105920000C94AC7F0C9406C90F931F93CF93DF9315
:1059300000D000D01F921F92CDB7DEB7882339F177
:1059400083E992E09E838D8304E610E01A83098345
:10595000BE016B5F7F4FCE0101960E9433CB8AEB75
:1059600092E098878F831A830983BE01695F7F4F16
:10597000CE0101960E9433CB28960FB6F894DEBF75
:105980000FBECDBFDF91CF911F910F91089588EB8E
:1059900091E09C838B8384E190E09A838983BE01AC
:1059A0006D5F7F4FE5CFCF92DF92EF920F931F9302
:1059B000CF93DF9300D01F92CDB7DEB7E090180AE7
:1059C00019821A821B821C82CE0101966C0107E1AA
:1059D00012E028E238E044E258E060E278E08CE14E
:1059E00098E00E9467CB0F900F900F900F90DF917F
:1059F000CF911F910F91EF90DF90CF9008952F924C
:105A00003F924F925F926F927F928F929F92AF924E
:105A1000BF92CF92DF92EF92FF920F931F93CF939B
:105A2000DF9300D000D000D01F92CDB7DEB72B019E
:105A30003C012D833E834F83588747015801DA8606
:105A4000C9868091170290911802A0911902B09115
:105A50001A0289839A83AB83BC83D6011C91119669
:105A60000C91119712963C90129713962C9020E06F
:105A700030E0A901612F702F832D922D0F944705DF
:105A800081110AC0E3E9F9E385919591A591B4915B
:105A9000182F092F3A2E2B2EA5019401609124086E
:105AA0007091250880912608909127080F9447054A
:105AB00087FF15C0812F902FA32DB22D8093170241
:105AC00090931802A0931902B0931A0280922408AE
:105AD00090922508A0922608B092270864DFE985F5
